:020000040800F2
:1000000000500020713000083D27000843270008F9
:10001000492700084F270008552700080000000066
:100020000000000000000000000000005B27000846
:100030006727000800000000732700087F270008DA
:10004000B9300008B9300008B9300008B9300008EC
:10005000B9300008B9300008B9300008B9300008DC
:10006000B9300008B93000088B270008B930000803
:10007000B9300008B9300008B930000899270008E5
:10008000B9300008B9300008B9300008B9300008AC
:10009000B9300008B9300008B9300008AD270008B1
:1000A000B9300008B9300008B9300008B93000088C
:1000B000B9300008CD270008B9300008B930000871
:1000C000B9300008B9300008B9300008B93000086C
:1000D000B9300008E1270008F5270008B93000080A
:1000E000B9300008B9300008B9300008000000003D
:1000F0000000000000000000000000000000000000
:0C01000000000000000000005FF808F1A3
:1001100010B5054C237833B9044B13B10448AFF341
:1001200000800123237010BDF801002000000000B2
:1001300064CA000808B5034B1BB103490348AFF379
:10014000008008BD00000000FC01002064CA000817
:10015000034613F8012B002AFBD1181A0138704707
:1001600081F0004102E000BF83F0004330B54FEA68
:1001700041044FEA430594EA050F08BF90EA020FD5
:100180001FBF54EA000C55EA020C7FEA645C7FEA68
:10019000655C00F0E2804FEA5454D4EB5555B8BF8B
:1001A0006D420CDD2C4480EA020281EA030382EAFC
:1001B000000083EA010180EA020281EA0303362D8E
:1001C00088BF30BD11F0004F4FEA01314FF4801C61
:1001D0004CEA113102D0404261EB410113F0004F73
:1001E0004FEA03334CEA133302D0524263EB43032A
:1001F00094EA050F00F0A780A4F10104D5F1200EC8
:100200000DDB02FA0EFC22FA05F2801841F1000122
:1002100003FA0EF2801843FA05F359410EE0A5F1F6
:1002200020050EF1200E012A03FA0EFC28BF4CF027
:10023000020C43FA05F3C01851EBE37101F00045DD
:1002400007D54FF0000EDCF1000C7EEB00006EEBEA
:100250000101B1F5801F1BD3B1F5001F0CD3490874
:100260005FEA30004FEA3C0C04F101044FEA4452CB
:1002700012F5800F80F09A80BCF1004F08BF5FEA52
:10028000500C50F1000041EB045141EA050130BD32
:100290005FEA4C0C404141EB0101013C28BFB1F544
:1002A000801FE9D291F0000F04BF01460020B1FA8F
:1002B00081F308BF2033A3F10B03B3F120020CDA62
:1002C0000C3208DD02F1140CC2F10C0201FA0CF040
:1002D00021FA02F10CE002F11402D8BFC2F1200CA5
:1002E00001FA02F120FA0CFCDCBF41EA0C0190405B
:1002F000E41AA2BF01EB0451294330BD6FEA0404A4
:100300001F3C1CDA0C340EDC04F11404C4F120028E
:1003100020FA04F001FA02F340EA030021FA04F3A0
:1003200045EA030130BDC4F10C04C4F1200220FAF7
:1003300002F001FA04F340EA0300294630BD21FA35
:1003400004F0294630BD94F0000F83F4801306BFFB
:1003500081F480110134013D4EE77FEA645C18BFEF
:100360007FEA655C29D094EA050F08BF90EA020F86
:1003700005D054EA000C04BF1946104630BD91EA7E
:10038000030F1EBF0021002030BD5FEA545C05D181
:100390004000494128BF41F0004130BD14F58004C0
:1003A0003CBF01F5801130BD01F0004545F0FE4134
:1003B00041F470014FF0000030BD7FEA645C1ABF69
:1003C000194610467FEA655C1CBF0B46024650EAA0
:1003D000013406BF52EA033591EA030F41F40021CC
:1003E00030BD00BF90F0000F04BF0021704730B552
:1003F0004FF4806404F132044FF000054FF0000127
:1004000050E700BF90F0000F04BF0021704730B5E7
:100410004FF4806404F1320410F0004548BF4042BC
:100420004FF000013EE700BF42004FEAE2014FEA11
:1004300031014FEA02701FBF12F07F4393F07F4FEC
:1004400081F06051704732F07F4208BF704793F0EF
:100450007F4F04BF41F40021704730B54FF4607402
:1004600001F0004521F000411CE700BF50EA010205
:1004700008BF704730B54FF000050AE050EA0102AE
:1004800008BF704730B511F0004502D5404261EB1E
:1004900041014FF4806404F132045FEA915C3FF45F
:1004A000D8AE4FF003025FEADC0C18BF03325FEAFC
:1004B000DC0C18BF033202EBDC02C2F1200300FAAD
:1004C00003FC20FA02F001FA03FE40EA0E0021FAD2
:1004D00002F11444BDE600BF70B54FF0FF0C4CF4C0
:1004E000E06C1CEA11541DBF1CEA135594EA0C0F72
:1004F00095EA0C0F00F0DEF82C4481EA030621EAAD
:100500004C5123EA4C5350EA013518BF52EA0335E7
:1005100041F4801143F4801338D0A0FB02CE4FF099
:100520000005E1FB02E506F00042E0FB03E54FF0C9
:100530000006E1FB03569CF0000F18BF4EF0010EC1
:10054000A4F1FF04B6F5007F64F5407404D25FEABD
:100550004E0E6D4146EB060642EAC62141EA555170
:100560004FEAC52040EA5E504FEACE2EB4F1FD0CB2
:1005700088BFBCF5E06F1ED8BEF1004F08BF5FEA30
:10058000500E50F1000041EB045170BD06F00046E2
:1005900046EA010140EA020081EA0301B4EB5C048F
:1005A000C2BFD4EB0C0541EA045170BD41F4801187
:1005B0004FF0000E013C00F3AB8014F1360FDEBFAC
:1005C000002001F0004170BDC4F10004203C35DA88
:1005D0000C341BDC04F11404C4F1200500FA05F30B
:1005E00020FA04F001FA05F240EA020001F00042AC
:1005F00021F0004110EBD37021FA04F642EB060122
:100600005EEA430E08BF20EAD37070BDC4F10C044B
:10061000C4F1200500FA04F320FA05F001FA04F20F
:1006200040EA020001F0004110EBD37041F10001FB
:100630005EEA430E08BF20EAD37070BDC4F1200506
:1006400000FA05F24EEA020E20FA04F301FA05F26E
:1006500043EA020321FA04F001F0004121FA04F216
:1006600020EA020000EBD3705EEA430E08BF20EAE6
:10067000D37070BD94F0000F0FD101F00046400020
:1006800041EB010111F4801F08BF013CF7D041EAA2
:10069000060195F0000F18BF704703F000465200A6
:1006A00043EB030313F4801F08BF013DF7D043EA77
:1006B0000603704794EA0C0F0CEA135518BF95EA2D
:1006C0000C0F0CD050EA410618BF52EA4306D1D1B4
:1006D00081EA030101F000414FF0000070BD50EAD3
:1006E000410606BF1046194652EA430619D094EA5D
:1006F0000C0F02D150EA013613D195EA0C0F05D147
:1007000052EA03361CBF104619460AD181EA03019A
:1007100001F0004141F0FE4141F470014FF0000052
:1007200070BD41F0FE4141F4780170BD70B54FF0ED
:10073000FF0C4CF4E06C1CEA11541DBF1CEA13556D
:1007400094EA0C0F95EA0C0F00F0A7F8A4EB05044F
:1007500081EA030E52EA03354FEA013100F0888046
:100760004FEA03334FF0805545EA131343EA12630F
:100770004FEA022245EA111545EA10654FEA0026C4
:100780000EF000419D4208BF964244F1FD0404F57D
:10079000407402D25B084FEA3202B61A65EB0305D9
:1007A0005B084FEA32024FF480104FF4002CB6EB96
:1007B000020E75EB030E22BFB61A754640EA0C0016
:1007C0005B084FEA3202B6EB020E75EB030E22BF56
:1007D000B61A754640EA5C005B084FEA3202B6EB97
:1007E000020E75EB030E22BFB61A754640EA9C0056
:1007F0005B084FEA3202B6EB020E75EB030E22BF26
:10080000B61A754640EADC0055EA060E18D04FEAE3
:10081000051545EA16754FEA06164FEAC30343EA83
:1008200052734FEAC2025FEA1C1CC0D111F4801F50
:100830000BD141EA00014FF000004FF0004CB6E749
:1008400011F4801F04BF01430020B4F1FD0C88BFE8
:10085000BCF5E06F3FF6AFAEB5EB030C04BFB6EBF3
:10086000020C5FEA500C50F1000041EB045170BDE6
:100870000EF0004E4EEA113114EB5C04C2BFD4EB13
:100880000C0541EA045170BD41F480114FF0000E97
:10089000013C90E645EA060E8DE60CEA135594EA13
:1008A0000C0F08BF95EA0C0F3FF43BAF94EA0C0F16
:1008B0000AD150EA01347FF434AF95EA0C0F7FF48B
:1008C00025AF104619462CE795EA0C0F06D152EADF
:1008D00003353FF4FDAE1046194622E750EA4106C3
:1008E00018BF52EA43067FF4C5AE50EA41047FF4D4
:1008F0000DAF52EA43057FF4EBAE12E74FF0FF3C39
:1009000006E000BF4FF0010C02E000BF4FF0010C09
:100910004DF804CD4FEA410C7FEA6C5C4FEA430C82
:1009200018BF7FEA6C5C1BD001B050EA410C0CBFD1
:1009300052EA430C91EA030F02BF90EA020F002033
:10094000704710F1000F91EA030F58BF994208BF9A
:1009500090422CBFD8176FEAE37040F00100704757
:100960004FEA410C7FEA6C5C02D150EA013C07D1AE
:100970004FEA430C7FEA6C5CD6D152EA033CD3D0F9
:100980005DF8040B704700BF8446104662468C46F3
:100990001946634600E000BF01B5FFF7B7FF002826
:1009A00048BF10F1000F01BD4DF808EDFFF7F4FF4F
:1009B0000CBF012000205DF808FB00BF4DF808EDDA
:1009C000FFF7EAFF34BF012000205DF808FB00BFFD
:1009D0004DF808EDFFF7E0FF94BF012000205DF81F
:1009E00008FB00BF4DF808EDFFF7CEFF94BF0120D4
:1009F00000205DF808FB00BF4DF808EDFFF7C4FFCD
:100A000034BF012000205DF808FB00BF4FEA410C15
:100A10007FEA6C5C02D150EA013C0AD14FEA430CF8
:100A20007FEA6C5C02D152EA033C02D14FF0000035
:100A300070474FF0010070474FEA410212F5001273
:100A400015D211D56FF47873B3EB625212D94FEA15
:100A5000C12343F0004343EA505311F0004F23FAFF
:100A600002F018BF404270474FF00000704750EA54
:100A7000013005D111F0004008BF6FF00040704711
:100A80004FF00000704700BF4A0011D212F500126B
:100A900011D20DD56FF47873B3EB62520ED44FEAD6
:100AA000C12343F0004343EA505323FA02F0704756
:100AB0004FF00000704750EA013002D14FF0FF3094
:100AC00070474FF0000070474FEA4102B2F1E04337
:100AD00024BFB3F5001CDCF1FE5C0DD901F0004C25
:100AE0004FEAC0024CEA5070B2F1004F40EB830075
:100AF00008BF20F00100704711F0804F21D113F1A1
:100B00003872BCBF01F00040704741F480114FEAD9
:100B10005252C2F11802C2F1200C10FA0CF320FA62
:100B200002F018BF40F001004FEAC1234FEAD3237F
:100B300003FA0CFC40EA0C0023FA02F34FEA4303E9
:100B4000CCE77FEA625307D150EA01331EBF4FF072
:100B5000FE4040F44000704701F0004040F0FE408D
:100B600040F40000704700BF80F0004002E000BF8A
:100B700081F0004142001FBF5FEA410392EA030F88
:100B80007FEA226C7FEA236C6AD04FEA1262D2EBD2
:100B90001363C1BFD218414048404140B8BF5B42D7
:100BA000192B88BF704710F0004F40F4000020F070
:100BB0007F4018BF404211F0004F41F4000121F086
:100BC0007F4118BF494292EA030F3FD0A2F10102D0
:100BD00041FA03FC10EB0C00C3F1200301FA03F10E
:100BE00000F0004302D5494260EB4000B0F5000F31
:100BF00013D3B0F1807F06D340084FEA310102F1F0
:100C00000102FE2A51D2B1F1004F40EBC25008BFA1
:100C100020F0010040EA03007047490040EB00006B
:100C2000013A28BFB0F5000FEDD2B0FA80FCACF16C
:100C3000080CB2EB0C0200FA0CF0AABF00EBC25099
:100C400052421843BCBFD0401843704792F0000F87
:100C500081F4000106BF80F400000132013BB5E7DA
:100C60004FEA41037FEA226C18BF7FEA236C21D050
:100C700092EA030F04D092F0000F08BF08467047B5
:100C800090EA010F1CBF0020704712F07F4F04D183
:100C9000400028BF40F00040704712F100723CBF96
:100CA00000F50000704700F0004343F0FE4040F4C0
:100CB000000070477FEA226216BF08467FEA23637E
:100CC0000146420206BF5FEA412390EA010F40F469
:100CD000800070474FF0000304E000BF10F00043B5
:100CE00048BF40425FEA000C08BF704743F096439C
:100CF00001464FF000001CE050EA010208BF7047B7
:100D00004FF000030AE000BF50EA010208BF70473D
:100D100011F0004302D5404261EB41015FEA010C52
:100D200002BF84460146002043F0B64308BFA3F14A
:100D30008053A3F50003BCFA8CF2083AA3EBC2532C
:100D400010DB01FA02FC634400FA02FCC2F120024B
:100D5000BCF1004F20FA02F243EB020008BF20F082
:100D60000100704702F1200201FA02FCC2F12002E8
:100D700050EA4C0021FA02F243EB020008BF20EADD
:100D8000DC7070474FF0FF0C1CEAD0521EBF1CEA0B
:100D9000D15392EA0C0F93EA0C0F6FD01A4480EAF9
:100DA000010C400218BF5FEA41211ED04FF00063E2
:100DB00043EA501043EA5111A0FB01310CF000400E
:100DC000B1F5000F3EBF490041EAD3715B0040EA34
:100DD000010062F17F02FD2A1DD8B3F1004F40EB04
:100DE000C25008BF20F00100704790F0000F0CF0D7
:100DF000004C08BF49024CEA502040EA51207F3A9B
:100E0000C2BFD2F1FF0340EAC250704740F4000075
:100E10004FF00003013A5DDC12F1190FDCBF00F066
:100E200000407047C2F10002410021FA02F1C2F114
:100E3000200200FA02FC5FEA310040F1000053EAB0
:100E40004C0308BF20EADC70704792F0000F00F0FE
:100E5000004C02BF400010F4000F013AF9D040EA04
:100E60000C0093F0000F01F0004C02BF490011F498
:100E7000000F013BF9D041EA0C018FE70CEAD15396
:100E800092EA0C0F18BF93EA0C0F0AD030F0004C16
:100E900018BF31F0004CD8D180EA010000F00040CA
:100EA000704790F0000F17BF90F0004F084691F088
:100EB000000F91F0004F14D092EA0C0F01D14202C2
:100EC0000FD193EA0C0F03D14B0218BF084608D18B
:100ED00080EA010000F0004040F0FE4040F40000D5
:100EE000704740F0FE4040F4400070474FF0FF0C68
:100EF0001CEAD0521EBF1CEAD15392EA0C0F93EAAF
:100F00000C0F69D0A2EB030280EA010C49024FEA00
:100F1000402037D04FF0805343EA111143EA1013B9
:100F20000CF000408B4238BF5B0042F17D024FF471
:100F3000000C8B4224BF5B1A40EA0C00B3EB510F4C
:100F400024BFA3EB510340EA5C00B3EB910F24BF35
:100F5000A3EB910340EA9C00B3EBD10F24BFA3EBBA
:100F6000D10340EADC001B0118BF5FEA1C1CE0D182
:100F7000FD2A3FF650AF8B4240EBC25008BF20F035
:100F8000010070470CF0004C4CEA50207F32C2BF89
:100F9000D2F1FF0340EAC250704740F400004FF026
:100FA0000003013A37E792F0000F00F0004C02BF57
:100FB000400010F4000F013AF9D040EA0C0093F021
:100FC000000F01F0004C02BF490011F4000F013B7B
:100FD000F9D041EA0C0195E70CEAD15392EA0C0FE3
:100FE00008D142027FF47DAF93EA0C0F7FF470AF1B
:100FF000084676E793EA0C0F04D14B023FF44CAF5E
:1010000008466EE730F0004C18BF31F0004CCAD1F2
:1010100030F000427FF45CAF31F000437FF43CAF2E
:101020005FE700BF4FF0FF3C06E000BF4FF0010C50
:1010300002E000BF4FF0010C4DF804CD4FEA400232
:101040004FEA41037FEA226C18BF7FEA236C11D07C
:1010500001B052EA530C18BF90EA010F58BFB2EB2F
:10106000030088BFC81738BF6FEAE17018BF40F0AF
:10107000010070477FEA226C02D15FEA402C05D163
:101080007FEA236CE4D15FEA412CE1D05DF8040BE8
:10109000704700BF844608466146FFE70FB5FFF77B
:1010A000C9FF002848BF10F1000F0FBD4DF808ED33
:1010B000FFF7F4FF0CBF012000205DF808FB00BF24
:1010C0004DF808EDFFF7EAFF34BF012000205DF87E
:1010D00008FB00BF4DF808EDFFF7E0FF94BF0120CB
:1010E00000205DF808FB00BF4DF808EDFFF7D2FFC8
:1010F00094BF012000205DF808FB00BF4DF808ED0B
:10110000FFF7C8FF34BF012000205DF808FB00BFD7
:1011100038B505460C460022002328462146FFF735
:101120004DFC28B928462146BDE8384000F00AB8F1
:10113000284604F1004100F005F8404261EB41010E
:1011400038BD00BFD0B500220B4B06460F46FFF757
:10115000C3F9FFF799FC0446FFF744F90022074B57
:10116000FFF7BAF902460B4630463946FEF7FCFF58
:10117000FFF78AFC2146D0BD0000F03D0000F041A1
:1011800080B586B004AF64230222D021294803F041
:1011900065FE4FF47A73029301230193FB1D0093C4
:1011A00001237522D021234803F0F0FBFB79682B43
:1011B0003BD10023BB714FF47A7302930123019357
:1011C000BB1D009301236B22D0211A4803F0E4FADF
:1011D0000723BB714FF47A73029301230193BB1D64
:1011E000009301231922D021124803F0D5FA0023DD
:1011F000BB714FF47A73029301230193BB1D0093DB
:1012000001231C22D0210B4803F0C6FA0023BB7136
:101210004FF47A73029301230193BB1D00930123C2
:101220001B22D021034803F0B7FA00BF0837BD46A0
:1012300080BD00BF4402002080B584B000AF3B1DDC
:1012400000221A605A609A60184B194A1A60174BAC
:1012500000229A60154B00221A73144B00221A7553
:10126000124B4FF46022DA61104B00225A600F4B90
:1012700001221A610D4801F0A7FF0346002B01D09F
:1012800001F070F808237B600123BB600023FB6042
:101290003B1D1946054802F02FFA0346002B01D0EA
:1012A00001F060F800BF1037BD4680BD1402002079
:1012B0000024014080B588B000AF786007F11003CA
:1012C00000221A605A609A60DA607B681B68144AD0
:1012D000934221D1134B9B69124A43F400739361EB
:1012E000104B9B6903F40073FB60FB680D4B9B691B
:1012F0000C4A43F0080393610A4B9B6903F008030F
:10130000BB60BB6801233B6103237B6107F11003D2
:101310001946054802F030FF00BF2037BD4680BDAA
:101320000024014000100240000C014080B582B052
:1013300000AF0C4B5B690B4A43F001035361094B4F
:101340005B6903F001037B607B68002200210F20B2
:1013500002F03DFC0F2002F056FC00BF0837BD46EE
:1013600080BD00BF0010024080B588B000AF07F11B
:10137000100300221A605A609A60DA60544B9B692D
:10138000534A43F010039361514B9B6903F01003E0
:10139000FB60FB684E4B9B694D4A43F02003936111
:1013A0004B4B9B6903F02003BB60BB68484B9B69B8
:1013B000474A43F004039361454B9B6903F00403E0
:1013C0007B607B68424B9B69414A43F00803936111
:1013D0003F4B9B6903F008033B603B6800224FF4DE
:1013E00040413C4803F063F800224FF408613A485A
:1013F00003F05DF8002243F23601384803F057F855
:101400004FF440433B6101237B610023BB61022316
:10141000FB6107F1100319462E4802F0ADFE4FF4B0
:101420004C733B612E4B7B610023BB6107F11003C2
:101430001946294802F0A0FE4FF482533B61002375
:101440007B610023BB6107F110031946224802F0BB
:1014500093FE4FF408633B6101237B610023BB6172
:101460000223FB6107F1100319461B4802F084FEBA
:1014700043F236033B6101237B610023BB610223FE
:10148000FB6107F110031946144802F075FE4FF492
:1014900040433B6100237B610023BB6107F11003E4
:1014A00019460E4802F068FE002200210A2002F0D0
:1014B0008EFB0A2002F0A7FB00220221172002F077
:1014C00086FB172002F09FFB00BF2037BD4680BD82
:1014D000001002400010014000080140000C0140D3
:1014E0000000111080B500AF124B134A1A60114B67
:1014F000124A5A600F4B00229A600E4B0022DA60AB
:101500000C4B4FF480421A610A4B00225A61094B7E
:1015100000229A61074B0022DA61064B00221A6210
:10152000044802F0F5FF0346002B01D000F01AFF3B
:1015300000BF80BD4402002000580040A08601008A
:1015400080B588B000AF786007F1100300221A6000
:101550005A609A60DA607B681B68164A934224D10D
:10156000154B9B69144A43F008039361124B9B6926
:1015700003F00803FB60FB684FF440633B611223F8
:101580007B610323FB6107F1100319460B4802F04E
:10159000F3FD094BDB69084A43F48003D361064B32
:1015A000DB6903F48003BB60BB6800BF2037BD4626
:1015B00080BD00BF0058004000100240000C0140F8
:1015C00080B582B000AF7860391D4FF0FF33012243
:1015D000034806F0B0F97B6818460837BD4680BD61
:1015E000AC07002080B483B000AF0346FB80084BFB
:1015F0001B6800225A6200BF054B1B685A6AFB88B1
:101600009A42F9D300BF00BF0C37BD4680BC70477B
:101610000406002080B586B000AF0023FB753B1D9B
:1016200000221A605A609A60DA6010237B600123FE
:10163000BB6002233B610023FB603B1D19462A4827
:1016400002F09AFD00221021274802F030FF1420FA
:1016500001F096FD01221021234802F028FF1E20F0
:10166000FFF7C0FF0023BB600123FB603B1D194651
:101670001D4802F081FD2820FFF7B4FF10211A4811
:1016800002F0FEFE0346002B0BD15020FFF7AAFF0D
:101690001021154802F0F4FE0346002B01D001236F
:1016A000FB7501F063FD0346104A136001F05EFD17
:1016B00003460F4A136004E001F058FD03460C4A4C
:1016C00013601021084802F0DBFE0346002B06D011
:1016D000064B1B689A1C064B1B689A42ECD8FB7D94
:1016E00018461837BD4680BD000C0140A4020020FA
:1016F000A802002080B582B000AF0023FB7163E038
:1017000001F034FD0346344A136001F02FFD034617
:10171000324A136004E001F029FD03462F4A1360AA
:1017200010212F4802F0ACFE0346002B06D12A4BB5
:101730001B689A1C294B1B689A42ECD82820FFF79B
:1017400051FF1021264802F09BFE0346002B0ED1CC
:10175000FB79C3F10703012202FA03F35BB2DB4317
:101760005AB297F9063013405BB2BB710BE0FB79BC
:10177000C3F10703012202FA03F35AB297F90630C4
:1017800013435BB2BB7101F0F1FC0346124A1360D4
:1017900001F0ECFC0346114A136004E001F0E6FCA2
:1017A00003460E4A136010210D4802F069FE0346FD
:1017B000002B06D0084B1B689A1C084B1B689A42EA
:1017C000ECD8FB790133FB71FB79072B98D9BB79F6
:1017D00018460837BD4680BDA4020020A80200209C
:1017E000000C014080B500AFFFF784FF03469AB2BA
:1017F0001F4B1A80FFF77EFF03469AB21D4B1A80DB
:10180000FFF778FF03469AB21B4B1A80FFF772FF6F
:1018100003469AB2194B1A80FFF76CFF03469AB23F
:10182000174B1A80124B1B881A46124B1B88134405
:10183000114A12881344114A12881344104A12881C
:10184000934213D10C4B1B881A460C4B1B880D4935
:101850000D4807F04BFB0C48FEF77AFC03469AB2A2
:101860004FF0FF330849094806F065F800BF80BD16
:10187000980200209A0200209C0200209E02002074
:10188000A002002080CA0008EC020020AC07002063
:1018900090B5A9B000AF01F011FCAA4B00221A804C
:1018A000A94B00221A60A94B00221A60A84B002203
:1018B0001A60A84B00221A60A74B00221A60A74B9F
:1018C00000221A60A64B00221A60A64B00221A6062
:1018D000A54B00221A60A54B00221A6000F0FEF909
:1018E000FFF742FDFFF722FDFFF7A6FC01F0A2F88B
:1018F00001F0C6FA01F0EEFA01F04CF801F01CF923
:1019000001F068F9FFF7EEFD00F044FE0A2000F058
:10191000C9FD00F06DFDFFF733FC01224FF40061BB
:10192000934802F0C4FD4FF4967001F029FC0122A7
:101930004FF400618E4802F0BAFD8E4804F0F6FCC8
:1019400000224FF400618A4802F0B1FD17228A4953
:101950008A4806F082F8142289498A4806F07DF800
:10196000894804F02DFD894804F0E0FC00218748F7
:1019700004F0FEFD0421854804F0FAFD834B1B684A
:1019800000229A63814B1B6800225A6300F06CFDB1
:1019900047E07F4B1C6800F055FE03461A467D4B1E
:1019A0001A557B4B1A687A4B1B687A49895C7A4ACC
:1019B000D154784B9B7A102B05D16C4B00221A60C6
:1019C000694B00221A60734B9B79102B05D1614B38
:1019D00000221A60644B00221A606D4B1B686D4A2E
:1019E000D35CF82B18D16B4B1A796C4B1A70694881
:1019F00000F00EFB034687F86B3097F86B300F2B27
:101A000006D1664B1B78F02B02D1624800F076FBC2
:101A10005F4B00221A6004E05D4B1B6801335C4A97
:101A2000136000F03FFE0346002BB2D15C4BC7F8B9
:101A30008C305C4BC7F888305B4801F09DFC4FF060
:101A4000FF31594801F046FD0346002B40F0348138
:101A5000554801F045FE0346A7F88630B7F88630B2
:101A60001846FFF737F9034650491846FFF78AF939
:101A70000346C7F88030D7F88810D7F88C00FFF7F6
:101A800079F80346D7F888101846FFF72FFA03466F
:101A90001946D7F88000FFF775F90346FB67444BFA
:101AA000BB67444B7B67B96FF86FFFF713FB0346C7
:101AB000002B04D04FF00003C7F89C3021E0796F71
:101AC000F86FFFF711FB0346002B03D03A4BC7F822
:101AD0009C3016E0B96FF86FFFF74AF803461C46D2
:101AE000B96F786FFFF744F8034619462046FFF7B1
:101AF000FDF9034630491846FFF744F90346C7F895
:101B00009C302E4B1B7819462D4AD7F89C3042F852
:101B100021302A4B1B785A1C2A4B83FB0213134497
:101B20009910D317C91A0B46DB005B1AD11ACAB237
:101B3000224B1A704FF00003C7F898300023C7F803
:101B4000943053E0E802002020030020240300200A
:101B5000280300202C030020300300203403002041
:101B6000380300203C0300204403002040030020F1
:101B7000000801400406002098CA000868070020F9
:101B8000B0CA0008AC070020940600204C060020D4
:101B9000E4020020AC020020C8020020E102002084
:101BA0000060EA4600C0914514020020A5F8513AB1
:101BB0009A99A34148E1B0410000C842480300207F
:101BC0004C030020932449923C4AD7F8943052F8B1
:101BD00023301946D7F89800FEF7CCFF0346C7F824
:101BE0009830D7F894300133C7F89430D7F8943050
:101BF000062BE9DD3249D7F89800FFF777F903465D
:101C0000C7F890302F4B3B672F4B1B681946D7F80E
:101C10009000FEF7ADFF034623F00043FB66396FEB
:101C2000F86EFFF757FA0346002B03D0264B1B68CC
:101C3000C7F89030244AD7F890301360D7F8900056
:101C4000FEF7F2FB02460B46381D204907F04EF91D
:101C50003B1D1846FEF77CFA03469AB2391D4FF039
:101C6000FF331B4805F067FEF86FFEF7DDFB024609
:101C70000B46381D174907F039F93B1D1846FEF78A
:101C800067FA03469AB2391D4FF0FF33104805F04A
:101C900052FEFFF7BFFC0346002B01D0FFF7A2FD69
:101CA0000D4B1B78002B02D00B4B00221A704FF407
:101CB000FA6001F065FA6BE600BF69E64C030020AC
:101CC0000000E0400000404068030020C4CA000853
:101CD000AC070020DCCA00081600002080B594B0D4
:101CE00000AF07F1280328220021184606F084FAE5
:101CF00007F1140300221A605A609A60DA601A61D0
:101D00003B1D00221A605A609A60DA600123BB62B0
:101D10004FF48033FB6200233B630123BB63022348
:101D20007B644FF48033BB644FF4E013FB6407F132
:101D30002803184603F01AFD0346002B01D000F0DB
:101D400011FB0F237B610223BB610023FB614FF476
:101D500080633B6200237B6207F114030221184673
:101D600003F086FF0346002B01D000F0FBFA0223AC
:101D70007B604FF40043FB603B1D184604F010F9F4
:101D80000346002B01D000F0EDFA00BF5037BD46EE
:101D900080BD000090B597B002AF78604E4B002236
:101DA0009A744D4B9A7C4C4B5A744B4B5A7C4A4B11
:101DB0001A74494B1A7C484BDA73474BDA7B464B13
:101DC0005A73454B5A7B444B9A73434B0022DA7249
:101DD000414B0022DA73404B00229A743E4B9A7CAE
:101DE0003D4B5A743C4B5A7C3B4B1A743A4B1A7C11
:101DF000394B9A73384B9A7B374B5A73364B5A7B15
:101E0000354B1A73344B02225A71334B00229A71AC
:101E1000324B1A68324B1B689A420ADB2E4B002267
:101E2000DA732E4B1A682E4B1B68D31A2D4A136097
:101E300009E0294B0122DA73294B1A68274B1B68EA
:101E4000D31A284A1360284B1A68284B1B689A42F9
:101E50000ADB214B0022DA72234B1A68234B1B68E2
:101E6000D31A234A136009E01B4B0122DA721F4B7D
:101E70001A681D4B1B68D31A1D4A13600A2001F013
:101E80007FF91C4B1B68FB631B4B1B683B641B4BA4
:101E90001B687B641A4B1B68BB64F96B3C6C7B6CE6
:101EA000BA6C07F108000192009323460A461549CF
:101EB00007F01CF8F864FB6C9AB207F108014FF0C8
:101EC000FF33114805F037FD062001F059F900BF36
:101ED0005437BD4690BD00BF0000002030030020F5
:101EE0003403002044030020380300203C0300207A
:101EF00040030020280300202C03002020030020A2
:101F00002403002000CB0008AC07002080B582B07D
:101F100000AF0346FB80FB88B3F5007F0DD14FF483
:101F20008071364802F0ACFA0346002B05D1344BE1
:101F30001B680133324A13605BE0FB88B3F5807F96
:101F400007D14FF400712D4802F09AFA0346012B95
:101F50004FD0FB88B3F5807F0DD14FF40071274837
:101F600002F08EFA0346002B05D1264B1B68013385
:101F7000244A13603DE0FB88B3F5007F07D14FF49E
:101F800080711E4802F07CFA0346012B31D0FB8899
:101F9000102B0CD12021194802F072FA0346012BB4
:101FA00005D1194B1B680133174A136021E0FB88E8
:101FB000202B06D11021114802F062FA0346002BB3
:101FC00017D0FB88202B0CD110210C4802F058FAB6
:101FD0000346012B05D10D4B1B6801330B4A1360DF
:101FE00007E0FB88102B04D12021044802F048FAB6
:101FF000FFE700BF0837BD4680BD00BF00080140B5
:10200000280300202C0300202003002024030020AC
:1020100080B485B000AF78600123FB60FB68013BB2
:10202000062B65D801A252F823F000BF4920000812
:102030005D200008732000089D200008B3200008E0
:10204000C9200008DF2000087B681B78F62B03D12D
:10205000FB680133FB6001E0002349E07B6801334A
:102060001B78F72B03D1FB680133FB6001E00023F1
:102070003EE07B6804331B78F02B09D07B68043387
:102080001B78F22B04D07B6804331B78F32B03D12D
:10209000FB680133FB6001E0012329E07B68053325
:1020A0001B780F2B03D8FB680133FB6001E0022390
:1020B0001EE07B6806331B78042B03D8FB680133D2
:1020C000FB6001E0032313E07B6807331B780F2BD1
:1020D00003D8FB680133FB6001E0042308E07B6860
:1020E0000E331B78F82B01D10F2301E00023FFE70B
:1020F00018461437BD4680BC704700BF80B584B019
:1021000000AF78607B6805331B78013B082B00F239
:10211000A08001A252F823F03D21000853210008BD
:10212000612100086F2100087D2100088B21000833
:1021300099210008A7210008CB2100087B680633FD
:102140001B78184600F092F803461A46434B9A72E1
:102150007FE000F0ADF803461A46404B9A7278E0F3
:1021600000F0ADF803461A463C4B9A7271E000F05D
:10217000ADF803461A46394B9A726AE000F0ADF8A2
:1021800003461A46354B9A7263E000F0ADF80346F9
:102190001A46324B9A725CE000F0ADF803461A46DC
:1021A0002E4B9A7255E07B6806331B78002B03D1C7
:1021B0002B4804F057F94BE07B6806331B78012B62
:1021C00046D1274804F0FCF842E07B680A331B78CC
:1021D00023F07F03FB737B680B331B7823F07F03B3
:1021E000BB737B680A331B7803F07F037B737B68C8
:1021F0000B331B7803F07F033B73FB7B802B02D1F7
:1022000000F08CF801E000F07DF8BB7B802B02D160
:1022100000F09CF801E000F08DF8124B1B687A7B0F
:102220009A63104B1B683A7B5A630F4B1B78002B49
:1022300005D000F0FBF80C4B00221A7004E000F00F
:1022400013F9094B01221A70044B0F229A7200E015
:1022500000BF00BF1037BD4680BD00BFAC020020EC
:10226000940600204C060020EA02002080B483B0CF
:1022700000AF0346FB71FB79013B032B12D801A28F
:1022800052F823F095220008992200089D220008A8
:10229000A1220008652305E0662303E0672301E02F
:1022A0006823FFE718460C37BD4680BC704700BF67
:1022B00080B400AF69231846BD4680BC704780B427
:1022C00000AF6A231846BD4680BC704780B400AF9B
:1022D0006C231846BD4680BC704780B400AF6D23A8
:1022E0001846BD4680BC704780B400AF70231846C6
:1022F000BD4680BC704780B400AF74231846BD460D
:1023000080BC704780B500AF01224FF40041024805
:1023100002F0CDF800BF80BD0010014080B500AFD5
:1023200000224FF40041024802F0C1F800BF80BD16
:102330000010014080B500AF01224FF480410248F7
:1023400002F0B5F800BF80BD0010014080B500AFBD
:1023500000224FF48041024802F0A9F800BF80BD7E
:102360000010014080B400AF72B600BFFEE700006D
:1023700080B582B000AF78600821054804F034FBD6
:10238000044B01221A6000BF0837BD4680BD00BF64
:10239000DC0600208C03002080B485B000AFF8601C
:1023A000B9607A603B60FB68D9B2104AFB6802F8FA
:1023B00023107B68D9B20D4AFB689B0013440A4680
:1023C0005A70BB68D9B2094AFB689B0013440A469D
:1023D0009A703B68D9B2054AFB689B0013440A46D1
:1023E000DA7000BF1437BD4680BC70476C03002014
:1023F00080B500AF0DE00C4B1B781846002300227F
:10240000FF21FFF7C9FF084B1B780133DAB2064BF7
:102410001A70054B1B78072BEDD900F04DF8024BD5
:1024200000221A7000BF80BD7405002080B500AF87
:102430000DE00C4B1B7818460023FF220021FFF70C
:10244000ABFF084B1B780133DAB2064B1A70054B11
:102450001B78072BEDD900F02FF8024B00221A70E1
:1024600000BF80BD7405002080B500AF0DE00C4BAF
:102470001B7818460023FF22FF21FFF78DFF084B32
:102480001B780133DAB2064B1A70054B1B78072B09
:10249000EDD900F011F8024B00221A7000BF80BD88
:1024A0007405002080B483B000AF786000BF0C37A3
:1024B000BD4680BC7047000080B586B000AF0023E9
:1024C0007B6100233B6136E02E4A3B699B0013444D
:1024D0005B781A042B493B699B000B449B781B02D9
:1024E0001A4328493B699B000B44DB7813437B600C
:1024F0001723FB6019E00122FB6802FA03F31A4676
:102500007B681340002B05D01F4A7B693C2122F8D1
:10251000131004E01C4A7B691E2122F813107B690A
:1025200001337B61FB68013BFB60FB68002BE2DA57
:102530003B6901333B613B69072BC5DD0023BB6071
:102540000AE0114A7B69002122F813107B690133EC
:102550007B61BB680133BB60BB68312BF1DD7B69FC
:102560009BB2094A0821094804F0A4F800BF084BAF
:102570001B68002BFBD0064B00221A6000BF1837E7
:10258000BD4680BD6C03002090030020DC060020C7
:102590008C03002080B400AF0B4B0C4A1A600C4B2C
:1025A0001B685A690A4B1B6842F001025A61084BCA
:1025B0001B68DA68064B1B6842F02002DA6000BF35
:1025C000BD4680BC704700BFFC0500207805002098
:1025D000AC07002080B584B000AF03463960FB71C2
:1025E0003B6893F88030DBB2013303F07F03FB607C
:1025F0003B6893F88130DBB21A46FB6893420DD0FA
:102600003B6893F88030DBB219463B68FA795A543C
:10261000FB68DAB23B6883F880200AE0074B0022AF
:102620001A71192316220549054805F084F9FFF7A8
:10263000DFFE00BF1037BD4680BD00BF0000002098
:10264000AC07002080B483B000AF154B1B6893F833
:102650008030DAB2124B1B6893F88130DBB29A42B9
:1026600001D1FF2317E00E4B1B680D4A126892F848
:102670008120D2B29B5CFB71094B1B6893F88130BF
:10268000DBB20133DAB2064B1B6802F07F02D2B232
:1026900083F88120FB7918460C37BD4680BC704713
:1026A000FC05002080B400AF0A4B1B6893F8803013
:1026B000DBB29AB2074B1B6893F88130DBB29BB256
:1026C000D31A9BB280339BB203F07F031846BD46FA
:1026D00080BC7047FC05002080B485B000AF154B6E
:1026E0009B69144A43F001039361124B9B6903F009
:1026F0000103BB60BB680F4BDB690E4A43F080539C
:10270000D3610C4BDB6903F080537B607B680A4B21
:102710005B68FB60FB6823F0E063FB60FB6843F0F1
:102720000073FB60044AFB68536000BF1437BD466A
:1027300080BC7047001002400000014080B400AF30
:10274000FEE780B400AFFEE780B400AFFEE780B4E0
:1027500000AFFEE780B400AFFEE780B400AF00BF7B
:10276000BD4680BC704780B400AF00BFBD4680BC92
:10277000704780B400AF00BFBD4680BC704780B5D5
:1027800000AF00F0E1FC00BF80BD80B500AF1020BD
:1027900001F0A6FE00BF80BD80B500AF024801F089
:1027A000B7FB00BF80BD00BF2407002080B500AF8D
:1027B000202001F095FE4FF4807001F091FE4FF45F
:1027C000007001F08DFE00BF80BD000080B500AF3D
:1027D000024804F0C7F900BF80BD00BF9406002086
:1027E00080B500AF024805F07DF900BF80BD00BF95
:1027F0006807002080B500AF024805F073F900BFFC
:1028000080BD00BFAC07002080B400AF0123184694
:10281000BD4680BC704780B582B000AF786039603B
:1028200005F0C0FC034616221A604FF0FF3318462D
:102830000837BD4680BD80B582B000AF78604FF0EC
:10284000FF317868FFF7E7FFFEE780B586B000AF9D
:10285000F860B9607A6000237B610AE0AFF3008022
:102860000146BB685A1CBA60CAB21A707B69013350
:102870007B617A697B689A42F0DB7B68184618377F
:10288000BD4680BD80B586B000AFF860B9607A60A3
:1028900000237B6109E0BB685A1CBA601B781846AC
:1028A000FEF78EFE7B6901337B617A697B689A4211
:1028B000F1DB7B6818461837BD4680BD80B483B015
:1028C00000AF78604FF0FF3318460C37BD4680BC30
:1028D000704780B483B000AF786039603B684FF4D4
:1028E00000525A60002318460C37BD4680BC704722
:1028F00080B483B000AF7860012318460C37BD4622
:1029000080BC704780B485B000AFF860B9607A6071
:10291000002318461437BD4680BC704780B586B08A
:1029200000AF7860144A154BD31A7B617B693B6119
:10293000134B1B68002B02D1114B124A1A60104B2B
:102940001A687B6813443A699A4207D205F02AFC58
:1029500003460C221A604FF0FF3309E0084B1B6856
:10296000FB60074B1A687B681344054A1360FB68D9
:1029700018461837BD4680BD0050002000040000F6
:10298000000600200808002080B400AF00BFBD464C
:1029900080BC704780B586B000AF07F10803002205
:1029A0001A605A609A60DA603B4600221A605A60E8
:1029B0001E4B1F4A1A601D4B47225A601B4B0022B8
:1029C0009A601A4B4FF6FF72DA60184B00221A61B8
:1029D000164B00225A61154B00229A61134803F0EE
:1029E00055FC0346002B01D0FFF7BCFC4FF480538D
:1029F000BB6007F1080319460C4804F079FA034656
:102A0000002B01D0FFF7AEFC00233B6000237B606E
:102A10003B461946054804F0D1FE0346002B01D081
:102A2000FFF7A0FC00BF1837BD4680BD040600209C
:102A3000002C014080B58EB000AF07F128030022C2
:102A40001A605A609A60DA6007F1200300221A6067
:102A50005A603B1D00221A605A609A60DA601A615F
:102A60005A619A61334B4FF080421A60314B1B22FE
:102A70005A60304B00229A602E4B6422DA602D4B54
:102A800000221A612B4B00229A612A4803F0FEFBB8
:102A90000346002B01D0FFF765FC4FF48053BB6267
:102AA00007F128031946234804F022FA0346002BB5
:102AB00001D0FFF757FC1F4803F002FD0346002B2F
:102AC00001D0FFF74FFC00233B6200237B6207F13C
:102AD00020031946174804F071FE0346002B01D06D
:102AE000FFF740FC60237B603223BB600023FB6068
:102AF00000237B613B1D002219460E4804F03AF981
:102B00000346002B01D0FFF72DFC0023BB603B1DCB
:102B100004221946074804F02DF90346002B01D082
:102B2000FFF720FC034800F057F900BF3837BD46D7
:102B300080BD00BF4C06002080B586B000AF07F115
:102B4000080300221A605A609A60DA603B4600224D
:102B50001A605A601D4B1E4A1A601C4B41F28832A3
:102B60005A601A4B00229A60184B4FF4E152DA6017
:102B7000164B00221A61154B80229A61134803F00C
:102B800085FB0346002B01D0FFF7ECFB4FF480538D
:102B9000BB6007F1080319460C4804F0A9F9034685
:102BA000002B01D0FFF7DEFB00233B6000237B609E
:102BB0003B461946054804F001FE0346002B01D0B0
:102BC000FFF7D0FB00BF1837BD4680BD940600203C
:102BD0000004004080B58EB000AF07F1280300224A
:102BE0001A605A609A60DA6007F1200300221A60C6
:102BF0005A603B1D00221A605A609A60DA601A61BE
:102C00005A619A612C4B2D4A1A602B4B00225A6054
:102C1000294B00229A60284B5922DA60264B002269
:102C20001A61254B00229A61234803F02FFB0346CB
:102C3000002B01D0FFF796FB4FF48053BB6207F1E6
:102C4000280319461C4804F053F90346002B01D011
:102C5000FFF788FB184803F033FC0346002B01D034
:102C6000FFF780FB00233B6200237B6207F1200318
:102C70001946114804F0A2FD0346002B01D0FFF7CE
:102C800071FB60237B600023BB600023FB6000239B
:102C90007B613B1D08221946074804F06BF8034688
:102CA000002B01D0FFF75EFB034800F095F800BF52
:102CB0003837BD4680BD00BFDC060020000800405C
:102CC00080B586B000AF78607B681B683C4A934251
:102CD0000CD13C4B9B693B4A43F400639361394BF5
:102CE0009B6903F400637B617B6964E07B681B681C
:102CF000B3F1804F0CD1334BDB69324A43F001030F
:102D0000D361304BDB6903F001033B613B6952E067
:102D10007B681B682C4A934214D12A4BDB69294AF1
:102D200043F00203D361274BDB6903F00203FB602E
:102D3000FB68002201211D2000F049FF1D2000F04A
:102D400062FF38E07B681B68204A934233D11D4BF9
:102D5000DB691C4A43F00403D3611A4BDB6903F0BF
:102D60000403BB60BB681A4B1A4A1A60184B102246
:102D70005A60174B00229A60154B8022DA60144B80
:102D80004FF480721A61124B4FF480625A61104BFB
:102D900000229A610E4B0022DA610D4800F04EFFCE
:102DA0000346002B01D0FFF7DDFA7B68084ADA62A0
:102DB000074A7B68536200BF1837BD4680BD00BF1D
:102DC000002C0140001002400004004000080040B8
:102DD000240700205800024080B588B000AF78601A
:102DE00007F1100300221A605A609A60DA607B686B
:102DF0001B68B3F1804F18D11D4B9B691C4A43F0EF
:102E0000040393611A4B9B6903F00403FB60FB68A6
:102E100003233B6102237B610223FB6107F1100363
:102E20001946144801F0A8F91DE07B681B68124A96
:102E3000934218D10E4B9B690D4A43F008039361EE
:102E40000B4B9B6903F00803BB60BB684FF48073B6
:102E50003B6102237B610223FB6107F110031946EA
:102E6000064801F089F900BF2037BD4680BD00BF8C
:102E7000001002400008014000080040000C014022
:102E800080B500AF114B124A1A60104B4FF4E1327B
:102E90005A600E4B00229A600C4B0022DA600B4BFA
:102EA00000221A61094B0C225A61084B00229A61D8
:102EB000064B0022DA61054804F0F0FC0346002BC3
:102EC00001D0FFF74FFA00BF80BD00BF68070020A8
:102ED0000038014080B500AF114B124A1A60104B08
:102EE0004FF4E1325A600E4B00229A600C4B0022E4
:102EF000DA600B4B00221A61094B0C225A61084B15
:102F000000229A61064B0022DA61054804F0C6FCF3
:102F10000346002B01D0FFF725FA00BF80BD00BF9C
:102F2000AC0700200044004080B58CB000AF786052
:102F300007F11C0300221A605A609A60DA607B680D
:102F40001B68454A934246D1444B9B69434A43F42C
:102F500080439361414B9B6903F48043BB61BB6930
:102F60003E4B9B693D4A43F0080393613B4B9B6991
:102F700003F008037B617B694023FB6102233B6212
:102F80000323BB6207F11C031946354801F0F4F82E
:102F90008023FB6100233B6200237B6207F11C035B
:102FA00019462F4801F0E8F82E4B5B68FB62FB6A7C
:102FB00043F0E063FB62FB6A43F00403FB62294ACF
:102FC000FB6A536000220321252000F000FE25202B
:102FD00000F019FE3CE07B681B68234A934237D11E
:102FE0001E4BDB691D4A43F40033D3611B4BDB6985
:102FF00003F400333B613B69184B9B69174A43F06C
:1030000004039361154B9B6903F00403FB60FB68A9
:103010000423FB6102233B620323BB6207F11C0311
:103020001946124801F0A8F80823FB6100233B620F
:1030300000237B6207F11C0319460C4801F09CF841
:1030400000220021262000F0C2FD262000F0DBFD3A
:1030500000BF3037BD4680BD00380140001002403F
:10306000000C014000000140004400400008014005
:103070000C480D490D4A002302E0D458C4500433D3
:10308000C4188C42F9D30A4A0A4C002301E01360A9
:103090000432A242FBD3FFF777FC05F089F8FEF774
:1030A000F7FB704700000020F8010020F4CF000873
:1030B000F801002004080020FEE7000080B500AF02
:1030C000084B1B68074A43F010031360032000F00D
:1030D00073FD002000F008F8FFF7FEFA0023184601
:1030E00080BD00BF0020024080B582B000AF786094
:1030F000124B1A68124B1B7819464FF47A73B3FBC4
:10310000F1F3B2FBF3F3184600F08BFD0346002BFE
:1031100001D001230EE07B680F2B0AD800227968CA
:103120004FF0FF3000F053FD064A7B681360002328
:1031300000E0012318460837BD4680BD1800002076
:10314000200000201C00002080B400AF054B1B783D
:103150001A46054B1B681344034A136000BFBD4663
:1031600080BC704720000020F007002080B400AF32
:10317000024B1B681846BD4680BC7047F007002014
:1031800080B584B000AF7860FFF7F0FFB8607B686F
:10319000FB60FB68B3F1FF3F05D00A4B1B781A4672
:1031A000FB681344FB6000BFFFF7E0FF0246BB680B
:1031B000D31AFA689A42F7D800BF00BF1037BD464D
:1031C00080BD00BF2000002080B586B000AF7860D1
:1031D0000023FB7500233B610023BB600023FB60E1
:1031E0007B68002B01D10123BEE07B689B68002B2C
:1031F0007B689B6A002B09D17B680022DA627B68BE
:10320000002283F824207868FEF754F8786800F0EC
:10321000C5FB0346FB757B689B6A03F01003002B1C
:1032200040F09980FB7D002B40F095807B689B6A85
:1032300023F4885323F0020343F002027B689A626E
:103240007B685A687B68DB691A437B681B7B5B0081
:103250001343BA681343BB607B689B68B3F5807FF8
:1032600003D07B689B68012B02D14FF4807300E090
:1032700000233A6913433B617B681B7D012B19D105
:103280007B681B7B002B09D17B689B69013B5A0340
:103290003B69134343F400633B610BE07B689B6A2B
:1032A00043F020027B689A627B68DB6A43F001028C
:1032B0007B68DA627B681B685B6823F469417B6822
:1032C0001B683A690A435A607B681B689A68284BF6
:1032D00013407A681268B9680B4393607B689B68F7
:1032E000B3F5807F03D07B689B68012B04D17B689A
:1032F0001B69013B1B05FB607B681B68DB6A23F4D1
:1033000070017B681B68FA680A43DA627B681B6895
:103310009A68184B1340BA689A420BD17B68002216
:10332000DA627B689B6A23F0030343F001027B6847
:103330009A6218E07B689B6A23F0120343F0100244
:103340007B689A627B68DB6A43F001027B68DA6221
:103350000123FB7507E07B689B6A43F010027B68E2
:103360009A620123FB75FB7D18461837BD4680BD68
:10337000FDF7E1FFFE0E1FFF80B584B000AF78605F
:103380000023FB737B6893F82430012B01D10223C7
:1033900098E07B68012283F82420786800F0A4FA82
:1033A0000346FB73FB7B002B40F087807B689B6AA6
:1033B00023F4407323F0010343F480727B689A6224
:1033C0007B681B68414A934205D1414B5B6803F41B
:1033D0007023002B15D17B689B6A23F480127B68D5
:1033E0009A627B681B685B6803F48063002B26D0BD
:1033F0007B689B6A23F4405343F480527B689A6253
:103400001DE07B689B6A43F480127B689A627B684C
:103410001B682F4A934204D07B681B682B4A934257
:103420000DD12B4B5B6803F48063002B07D07B68C6
:103430009B6A23F4405343F480527B689A627B6812
:103440009B6A03F48053002B06D07B68DB6A23F071
:1034500006027B68DA6202E07B680022DA627B683F
:10346000002283F824207B681B686FF002021A6038
:103470007B681B689B6803F46023B3F5602F13D14E
:103480007B681B68114A934205D1114B5B6803F4BA
:103490007023002B08D17B681B689A687B681B68C7
:1034A00042F4A0029A600CE07B681B689A687B6813
:1034B0001B6842F480129A6003E07B68002283F864
:1034C0002420FB7B18461037BD4680BD00280140F4
:1034D0000024014090B587B000AF786039600023C8
:1034E0007B610023FB6000233B61FFF73FFE7861B7
:1034F0007B681B689B6803F48073002B0BD07B6890
:103500009B6A43F020027B689A627B68002283F802
:1035100024200123D3E07B681B685B6803F480737D
:10352000002B31D17B681B68DB6A03F47003002B2E
:103530002AD121E03B68B3F1FF3F1DD03B68002B4F
:1035400007D0FFF713FE02467B69D31A3A689A4206
:1035500012D27B681B681B6803F00203002B0BD19F
:103560007B689B6A43F004027B689A627B68002256
:1035700083F824200323A2E07B681B681B6803F008
:103580000203002BD6D070E04F4B1C68022002F0E3
:10359000BDFD0346B4FBF3F27B681B6819694B4B16
:1035A0000B40002B18D17B681B68D968484B0B4037
:1035B000002B11D17B681B681969464B0B40002B0F
:1035C00008D17B681B68D968434B0B40002B01D1A5
:1035D000142320E029231EE07B681B6819693D4BFA
:1035E0000B40002B06D17B681B68D9683A4B0B4017
:1035F000002B0DD07B681B681969384B0B40002BE2
:1036000008D17B681B68D968344B0B40002B01D173
:10361000542300E0FC2302FB03F33B6121E03B6801
:10362000B3F1FF3F1AD03B68002B07D0FFF79EFD98
:1036300002467B69D31A3A689A420FD2FB683A690C
:103640009A420BD97B689B6A43F004027B689A62BA
:103650007B68002283F82420032330E0FB680133D9
:10366000FB60FB683A699A42D9D87B681B686FF0A7
:1036700012021A607B689B6A43F400727B689A624C
:103680007B681B689B6803F46023B3F5602F15D13A
:103690007B681B7B002B11D17B689B6A23F48072B3
:1036A0007B689A627B689B6A03F48053002B05D188
:1036B0007B689B6A43F001027B689A62002318468C
:1036C0001C37BD4690BD00BF18000020244992243D
:1036D00024499200922449129224490049922400DC
:1036E00080B483B000AF78607B681B68DB6C1846E1
:1036F0000C37BD4680BC704780B485B000AF7860A1
:1037000039600023FB730023BB607B6893F824308F
:10371000012B01D10223DCE07B68012283F8242005
:103720003B685B68062B1CD87B681B68596B3B6841
:103730005A6813469B001344053B1F2202FA03F309
:10374000DB4319403B6818683B685A6813469B0086
:103750001344053B00FA03F27B681B680A435A6373
:103760003CE03B685B680C2B1CD87B681B68196BC2
:103770003B685A6813469B001344233B1F2202FAFE
:1037800003F3DB4319403B6818683B685A681346EB
:103790009B001344233B00FA03F27B681B680A4337
:1037A0001A631BE07B681B68D96A3B685A6813463A
:1037B0009B001344413B1F2202FA03F3DB431940F1
:1037C0003B6818683B685A6813469B001344413BAA
:1037D00000FA03F27B681B680A43DA623B681B68E5
:1037E000092B1CD97B681B68D9683B681A6813468B
:1037F0005B0013441E3B072202FA03F3DB4319402C
:103800003B6898683B681A6813465B0013441E3B8C
:1038100000FA03F27B681B680A43DA6019E07B68F0
:103820001B6819693B681A6813465B00134407223A
:1038300002FA03F3DB4319403B6898683B681A6857
:1038400013465B00134400FA03F27B681B680A43CB
:103850001A613B681B68102B03D03B681B68112B57
:1038600032D17B681B681D4A934225D17B681B6857
:103870009B6803F40003002B26D17B681B689A68C1
:103880007B681B6842F400029A603B681B68102B3F
:103890001AD1134B1B68134AA2FB03239A0C13463D
:1038A0009B0013445B00BB6002E0BB68013BBB6054
:1038B000BB68002BF9D107E07B689B6A43F02002CC
:1038C0007B689A620123FB737B68002283F82420C3
:1038D000FB7B18461437BD4680BC7047002401406E
:1038E0001800002083DE1B4380B584B000AF7860F1
:1038F0000023FB600023BB607B681B689B6803F0B0
:103900000103012B40D07B681B689A687B681B68A9
:1039100042F001029A601F4B1B681F4AA2FB03235F
:103920009B0CBB6002E0BB68013BBB60BB68002B2B
:10393000F9D1FFF71BFCF8601FE0FFF717FC024608
:10394000FB68D31A022B18D97B681B689B6803F0AD
:103950000103012B11D07B689B6A43F010027B6846
:103960009A627B68DB6A43F001027B68DA627B68FB
:10397000002283F82420012307E07B681B689B68F2
:1039800003F00103012BD8D1002318461037BD46A0
:1039900080BD00BF1800002083DE1B4380B584B0CB
:1039A00000AF78600023FB607B681B689B6803F0B6
:1039B0000103012B2ED17B681B689A687B681B680A
:1039C00022F001029A60FFF7D1FBF8601BE0FFF7DD
:1039D000CDFB0246FB68D31A022B14D97B681B6807
:1039E0009B6803F00103012B0DD17B689B6A43F0B8
:1039F00010027B689A627B68DB6A43F001027B6895
:103A0000DA62012307E07B681B689B6803F001030F
:103A1000012BDCD0002318461037BD4680BD0000C6
:103A200080B485B000AF78607B6803F00703FB606B
:103A30000C4BDB68BB60BA684FF6FF031340BB60FA
:103A4000FB681A02BB68134343F0BF6343F40033BF
:103A5000BB60044ABB68D36000BF1437BD4680BC5E
:103A6000704700BF00ED00E080B400AF044BDB689E
:103A70001B0A03F007031846BD4680BC704700BF11
:103A800000ED00E080B483B000AF0346FB7197F90E
:103A90000730002B0BDBFB7903F01F02064997F977
:103AA00007305B09012000FA02F241F8232000BF31
:103AB0000C37BD4680BC704700E100E080B483B0A5
:103AC00000AF03463960FB7197F90730002B0ADB22
:103AD0003B68DAB20C4997F907301201D2B20B44B5
:103AE00083F800230AE03B68DAB20849FB7903F067
:103AF0000F03043B1201D2B20B441A7600BF0C37FD
:103B0000BD4680BC704700BF00E100E000ED00E072
:103B100080B489B000AFF860B9607A60FB6803F0E8
:103B20000703FB61FB69C3F10703042B28BF0423D0
:103B3000BB61FB690433062B02D9FB69033B00E040
:103B400000237B614FF0FF32BB6902FA03F3DA43D3
:103B5000BB681A407B699A404FF0FF317B6901FADC
:103B600003F3D9437B680B40134318462437BD4603
:103B700080BC704780B582B000AF78607B68013B45
:103B8000B3F1807F01D301230FE00A4A7B68013B38
:103B900053600F214FF0FF30FFF790FF054B0022DD
:103BA0009A60044B07221A60002318460837BD4666
:103BB00080BD00BF10E000E080B582B000AF78604B
:103BC0007868FFF72DFF00BF0837BD4680BD80B580
:103BD00086B000AF0346B9607A60FB7300237B6157
:103BE000FFF742FF78617A68B9687869FFF790FF5C
:103BF000024697F90F3011461846FFF75FFF00BFE6
:103C00001837BD4680BD80B582B000AF0346FB715A
:103C100097F907301846FFF735FF00BF0837BD4654
:103C200080BD80B582B000AF78607868FFF7A2FFF2
:103C3000034618460837BD4680BD000080B485B0F5
:103C400000AF78600023FB607B68002B01D101236B
:103C500043E07B681B681A46224B1344224AA2FBAE
:103C600003231B099A007B681A647B681F4ADA6386
:103C70007B68022283F821207B681B681B68FB603D
:103C8000FB6823F47F5323F03003FB607B685A68A2
:103C90007B689B681A437B68DB681A437B681B69F7
:103CA0001A437B685B691A437B689B691A437B688C
:103CB000DB691343FA681343FB607B681B68FA688F
:103CC0001A607B6800229A637B68012283F82120B6
:103CD0007B68002283F82020002318461437BD4655
:103CE00080BC7047F8FFFDBFCDCCCCCC00000240BB
:103CF00080B586B000AFF860B9607A603B600023A1
:103D0000FB75FB6893F82030012B01D102234AE0B8
:103D1000FB68012283F82020FB6893F82130012BF7
:103D20003AD1FB68022283F82120FB6800229A63C3
:103D3000FB681B681A68FB681B6822F001021A60A6
:103D40003B687A68B968F86800F0E8F9FB68DB6AF4
:103D5000002B08D0FB681B681A68FB681B6842F0E0
:103D60000E021A600FE0FB681B681A68FB681B688C
:103D700022F004021A60FB681B681A68FB681B6863
:103D800042F00A021A60FB681B681A68FB681B682D
:103D900042F001021A6005E0FB68002283F820204F
:103DA0000223FB75FB7D18461837BD4680BD80B4E5
:103DB00085B000AF78600023FB737B6893F82130F7
:103DC000022B08D07B6804229A637B68002283F868
:103DD0002020012320E07B681B681A687B681B6831
:103DE00022F00E021A607B681B681A687B681B68E9
:103DF00022F001021A607B681A6C7B68DB6B012180
:103E000001FA02F25A607B68012283F821207B6864
:103E1000002283F82020FB7B18461437BD4680BC67
:103E20007047000080B584B000AF78600023FB735A
:103E30007B6893F82130022B05D07B6804229A63BB
:103E40000123FB7351E07B681B681A687B681B6861
:103E500022F00E021A607B681B681A687B681B6878
:103E600022F001021A607B681B68224A934229D023
:103E70007B681B68204A934222D07B681B681F4ADC
:103E800093421AD07B681B681D4A934212D07B680C
:103E90001B681C4A93420AD07B681B681A4A9342EB
:103EA00002D14FF480130EE04FF080730BE04FF41B
:103EB000803308E04FF4805305E04FF4807302E054
:103EC000102300E00123114A53607B68012283F82C
:103ED00021207B68002283F820207B685B6B002B0D
:103EE00003D07B685B6B78689847FB7B184610377C
:103EF000BD4680BD080002401C0002403000024068
:103F000044000240580002406C00024000000240A1
:103F100080B584B000AF78607B68DB6B1B68FB60AA
:103F20007B681B681B68BB607B681B6C04229A4023
:103F3000FB681340002B4FD0BB6803F00403002B39
:103F40004AD07B681B681B6803F02003002B07D155
:103F50007B681B681A687B681B6822F004021A6081
:103F60007B681B68664A934229D07B681B68654A58
:103F7000934222D07B681B68634A93421AD07B68C5
:103F80001B68624A934212D07B681B68604A934266
:103F90000AD07B681B685F4A934202D14FF48003CA
:103FA0000EE04FF080630BE04FF4802308E04FF405
:103FB000804305E04FF4806302E0402300E00423E7
:103FC000554A53607B68DB6A002B00F094807B6865
:103FD000DB6A786898478EE07B681B6C02229A4007
:103FE000FB681340002B56D0BB6803F00203002B84
:103FF00051D07B681B681B6803F02003002B0BD19A
:104000007B681B681A687B681B6822F00A021A60CA
:104010007B68012283F821207B681B68384A934221
:1040200029D07B681B68374A934222D07B681B6883
:10403000354A93421AD07B681B68344A934212D0A7
:104040007B681B68324A93420AD07B681B68314AFE
:10405000934202D14FF400130EE04FF000730BE0D7
:104060004FF4003308E04FF4005305E04FF40073C1
:1040700002E0202300E00223274A53607B680022ED
:1040800083F820207B689B6A002B34D07B689B6A76
:10409000786898472FE07B681B6C08229A40FB6881
:1040A0001340002B28D0BB6803F00803002B23D05B
:1040B0007B681B681A687B681B6822F00E021A6016
:1040C0007B681A6C7B68DB6B012101FA02F25A6093
:1040D0007B6801229A637B68012283F821207B6838
:1040E000002283F820207B681B6B002B04D07B68A8
:1040F0001B6B7868984700BF00BF1037BD4680BD76
:10410000080002401C00024030000240440002400F
:10411000580002406C0002400000024080B485B0AC
:1041200000AFF860B9607A603B60FB681A6CFB68AE
:10413000DB6B012101FA02F25A60FB681B683A68E6
:104140005A60FB685B68102B08D1FB681B687A68B3
:104150009A60FB681B68BA68DA6007E0FB681B6856
:10416000BA689A60FB681B687A68DA6000BF143727
:10417000BD4680BC7047000080B48BB000AF786053
:10418000396000237B6200233B6269E101227B6A84
:1041900002FA03F3FB613B681B68FA691340BB61D9
:1041A000BA69FB699A4240F058813B685B689A4A59
:1041B00093425ED0984A934275D8984A934258D019
:1041C000964A93426FD8964A934252D0944A934269
:1041D00069D8944A93424CD0924A934263D8924A07
:1041E000934246D0904A93425DD8122B2AD8122B84
:1041F00059D801A252F823F0734200084D4200083A
:104200005F420008A1420008A7420008A742000838
:10421000A7420008A7420008A7420008A7420008DA
:10422000A7420008A7420008A7420008A7420008CA
:10423000A7420008A7420008A7420008554200080C
:1042400069420008794A934213D02CE03B68DB684E
:104250003B6229E03B68DB6804333B6224E03B6857
:10426000DB6808333B621FE03B68DB680C333B6272
:104270001AE03B689B68002B02D104233B6213E0E9
:104280003B689B68012B05D108233B627B68FA6978
:104290001A6109E008233B627B68FA695A6103E00E
:1042A00000233B6200E000BFBB69FF2B01D87B68A5
:1042B00001E07B6804337B61BB69FF2B02D87B6A1A
:1042C0009B0002E07B6A083B9B003B617B691A68AC
:1042D0000F213B6901FA03F3DB431A40396A3B695A
:1042E00001FA03F31A437B691A603B685B6803F0C9
:1042F0008053002B00F0B1804D4B9B694C4A43F03A
:10430000010393614A4B9B6903F00103BB60BB68E7
:10431000484A7B6A9B08023352F82330FB607B6A71
:1043200003F003039B000F2202FA03F3DB43FA6856
:104330001340FB607B68404A934213D07B683F4A3E
:1043400093420DD07B683E4A934207D07B683D4A3A
:10435000934201D1032306E0042304E0022302E098
:10436000012300E000237A6A02F0030292009340E6
:10437000FA681343FB602F497B6A9B080233FA6893
:1043800041F823203B685B6803F48033002B06D0A0
:104390002D4B1A682C49BB6913430B6006E02A4B6E
:1043A0001A68BB69DB43284913400B603B685B68B4
:1043B00003F40033002B06D0234B5A682249BB6913
:1043C00013434B6006E0204B5A68BB69DB431E4930
:1043D00013404B603B685B6803F48013002B06D0EE
:1043E000194B9A681849BB6913438B6006E0164B5A
:1043F0009A68BB69DB43144913408B603B685B6878
:1044000003F40013002B21D00F4BDA680E49BB696F
:104410001343CB6021E000BF0000321000003110D8
:1044200000002210000021100000121000001110E6
:10443000001002400000014000080140000C014053
:104440000010014000140140000401400B4BDA68E9
:10445000BB69DB4309491340CB607B6A01337B6254
:104460003B681A687B6A22FA03F3002B7FF48EAE56
:1044700000BF00BF2C37BD4680BC70470004014020
:1044800080B485B000AF78600B467B807B689A680B
:104490007B881340002B02D00123FB7301E0002333
:1044A000FB73FB7B18461437BD4680BC704780B455
:1044B00083B000AF78600B467B8013467B707B78BF
:1044C000002B03D07A887B681A6103E07B881A048A
:1044D0007B681A6100BF0C37BD4680BC7047000086
:1044E00080B582B000AF0346FB80084B5A69FB8859
:1044F0001340002B06D0054AFB885361FB88184601
:10450000FDF704FD00BF0837BD4680BD0004014033
:1045100080B584B000AF78607B68002B01D10123A7
:104520002BE17B6893F83D30DBB2002B06D17B6832
:10453000002283F83C207868FDF702F87B6824228B
:1045400083F83D207B681B681A687B681B6822F033
:1045500001021A607B681B681A687B681B6842F45A
:1045600000421A607B681B681A687B681B6822F42B
:1045700000421A6001F0CEFCF8607B685B68814AFB
:10458000934207D8FB68804A934294BF01230023DB
:10459000DBB206E0FB687D4A934294BF012300230F
:1045A000DBB2002B01D00123E7E0FB68784AA2FBD5
:1045B00003239B0CBB607B681B685B6823F03F0197
:1045C0007B681B68BA680A435A607B681B681B6A71
:1045D00023F03F017B685B686A4A934202D8BB685C
:1045E000013309E0BB684FF4967202FB03F3694A9A
:1045F000A2FB03239B0901337A6812680B43136201
:104600007B681B68DB6923F44F4222F0FF027B6862
:104610005B685C498B4219D8FB68591E7B685B68F4
:104620005B00B1FBF3F3591C40F6FC730B40002B0D
:104630000AD0FB68591E7B685B685B00B1FBF3F333
:104640000133C3F30B0351E004234FE07B689B6805
:10465000002B11D1FB68581E7B6859680B465B0024
:104660000B44B0FBF3F30133C3F30B03002B0CBF7C
:1046700001230023DBB212E0FB68581E7B685968F7
:104680000B469B000B4499000B44B0FBF3F3013342
:10469000C3F30B03002B0CBF01230023DBB2002B61
:1046A00001D0012322E07B689B68002B0ED1FB68C0
:1046B000581E7B6859680B465B000B44B0FBF3F354
:1046C0000133C3F30B0343F400430FE0FB68581EB0
:1046D0007B6859680B469B000B4499000B44B0FB68
:1046E000F3F30133C3F30B0343F4404379680968E0
:1046F0001343CB617B681B681B6823F0C0017B6898
:10470000DA697B681B6A1A437B681B680A431A6074
:104710007B681B689B6823F4034323F0FF037A68DC
:1047200011697A68D26811437A6812680B43936002
:104730007B681B68DB6823F0FF017B685A697B6834
:104740009B691A437B681B680A43DA607B681B68B5
:104750001A687B681B6842F001021A607B680022BD
:104760001A647B68202283F83D207B6800221A634C
:104770007B68002283F83E20002318461037BD4690
:1047800080BD00BFA08601007F841E00FF083D00A1
:1047900083DE1B43D34D621080B588B002AFF86052
:1047A000084611461A4603467B810B463B81134659
:1047B000FB80FEF7DBFC7861FB6893F83D30DBB2F1
:1047C000202B40F0D9807B690093192301226D4989
:1047D000F86800F0EFFD0346002B01D00223CCE087
:1047E000FB6893F83C30012B01D10223C5E0FB6844
:1047F000012283F83C20FB681B681B6803F001035F
:10480000012B07D0FB681B681A68FB681B6842F025
:1048100001021A60FB681B681A68FB681B6822F4B7
:1048200000621A60FB68212283F83D20FB68402269
:1048300083F83E20FB6800221A64FB683A6A5A62D9
:10484000FB68BA8C5A85FB685B8D9AB2FB681A8547
:10485000FB684D4ADA62F8883A8979897B69019365
:10486000BB6A00930346F86800F026FC0346002B61
:1048700052D0012381E07A69B96AF86800F070FECD
:104880000346002B0DD0FB681B6C042B07D1FB6883
:104890001B681A68FB681B6842F400721A600123E7
:1048A0006BE0FB685B6A1A78FB681B681A61FB683F
:1048B0005B6A5A1CFB685A62FB681B8D013B9AB20B
:1048C000FB681A85FB685B8D9BB2013B9AB2FB6863
:1048D0005A85FB681B685B6903F00403042B1BD13A
:1048E000FB681B8D002B17D0FB685B6A1A78FB688E
:1048F0001B681A61FB685B6A5A1CFB685A62FB689A
:104900001B8D013B9AB2FB681A85FB685B8D9BB2DD
:10491000013B9AB2FB685A85FB681B8D002BAAD11C
:104920007A69B96AF86800F05CFE0346002B0DD086
:10493000FB681B6C042B07D1FB681B681A68FB68BB
:104940001B6842F400721A60012316E0FB681B68C2
:104950001A68FB681B6842F400721A60FB68202228
:1049600083F83D20FB68002283F83E20FB6800228C
:1049700083F83C20002300E0022318461837BD4688
:1049800080BD00BF020010000000FFFF80B58CB0AA
:1049900002AFF860084611461A4603467B810B4673
:1049A0003B811346FB8000233B62FEF7DFFB78620E
:1049B000FB6893F83D30DBB2202B40F044827B6AE9
:1049C0000093192301228249F86800F0F3FC0346A2
:1049D000002B01D0022337E2FB6893F83C30012B17
:1049E00001D1022330E2FB68012283F83C20FB68FE
:1049F0001B681B6803F00103012B07D0FB681B68D1
:104A00001A68FB681B6842F001021A60FB681B68A9
:104A10001A68FB681B6822F400621A60FB68222295
:104A200083F83D20FB68402283F83E20FB6800228B
:104A30001A64FB683A6B5A62FB68BA8E5A85FB6847
:104A40005B8D9AB2FB681A85FB68624ADA62F88865
:104A50003A8979897B6A0193BB6B00930346F868B6
:104A600000F0C0FB0346002B01D00123ECE1FB6802
:104A70001B8D002B13D10023FB61FB681B685B6956
:104A8000FB61FB681B689B69FB61FB69FB681B683A
:104A90001A68FB681B6842F400721A60C0E1FB6888
:104AA0001B8D012B1ED1FB681B681A68FB681B68F5
:104AB00022F480621A6072B600BF0023BB61FB68FB
:104AC0001B685B69BB61FB681B689B69BB61BB6959
:104AD000FB681B681A68FB681B6842F400721A6066
:104AE00062B635E0FB681B8D022B1ED1FB681B688C
:104AF0001A68FB681B6842F400621A6072B600BF55
:104B000000237B61FB681B685B697B61FB681B683A
:104B10009B697B617B69FB681B681A68FB681B6883
:104B200022F480621A6062B612E0FB681B681A68A1
:104B3000FB681B6842F480621A6000233B61FB68DB
:104B40001B685B693B61FB681B689B693B613B6958
:104B500066E1FB681B8D032B00F21F81FB681B8D38
:104B6000012B23D17A6AB96BF86800F07BFD03460C
:104B7000002B01D0012367E1FB681B681A69FB6801
:104B80005B6AD2B21A70FB685B6A5A1CFB685A6295
:104B9000FB681B8D013B9AB2FB681A85FB685B8D35
:104BA0009BB2013B9AB2FB685A8539E1FB681B8DC9
:104BB000022B52D17B6A0093BB6B00220649F86836
:104BC00000F0F8FB0346002B08D001233CE100BFB6
:104BD000020010000000FFFF0400010072B600BFD9
:104BE000FB681B681A68FB681B6842F400721A6055
:104BF000FB681B681A69FB685B6AD2B21A70FB68B3
:104C00005B6A5A1CFB685A62FB681B8D013B9AB2B7
:104C1000FB681A85FB685B8D9BB2013B9AB2FB680F
:104C20005A8562B600BFFB681B681A69FB685B6A3D
:104C3000D2B21A70FB685B6A5A1CFB685A62FB6846
:104C40001B8D013B9AB2FB681A85FB685B8D9BB29A
:104C5000013B9AB2FB685A85E2E07B6A0093BB6B2A
:104C600000227B49F86800F0A5FB0346002B01D029
:104C70000123E9E0FB681B681A68FB681B6822F4E3
:104C800080621A6072B600BFFB681B681A69FB6815
:104C90005B6AD2B21A70FB685B6A5A1CFB685A6284
:104CA000FB681B8D013B9AB2FB681A85FB685B8D24
:104CB0009BB2013B9AB2FB685A85664B1B68DB08C6
:104CC000654AA2FB03231A0A13469B001344DA0029
:104CD000D31A3B623B6A013B3B623B6A002B18D113
:104CE000FB6800221A63FB68202283F83D20FB68E2
:104CF000002283F83E20FB681B6C43F02002FB6817
:104D00001A6462B600BFFB68002283F83C200123CE
:104D10009AE0FB681B685B6903F00403042BD9D19C
:104D2000FB681B681A68FB681B6842F400721A6013
:104D3000FB681B681A69FB685B6AD2B21A70FB6871
:104D40005B6A5A1CFB685A62FB681B8D013B9AB276
:104D5000FB681A85FB685B8D9BB2013B9AB2FB68CE
:104D60005A8562B600BFFB681B681A69FB685B6AFC
:104D7000D2B21A70FB685B6A5A1CFB685A62FB6805
:104D80001B8D013B9AB2FB681A85FB685B8D9BB259
:104D9000013B9AB2FB685A8542E07A6AB96BF868BF
:104DA00000F060FC0346002B01D001234CE0FB68BF
:104DB0001B681A69FB685B6AD2B21A70FB685B6A8F
:104DC0005A1CFB685A62FB681B8D013B9AB2FB6858
:104DD0001A85FB685B8D9BB2013B9AB2FB685A85D2
:104DE000FB681B685B6903F00403042B18D1FB68A4
:104DF0001B681A69FB685B6AD2B21A70FB685B6A4F
:104E00005A1CFB685A62FB681B8D013B9AB2FB6817
:104E10001A85FB685B8D9BB2013B9AB2FB685A8591
:104E2000FB681B8D002B7FF494AEFB68202283F877
:104E30003D20FB68002283F83E20FB68002283F8B7
:104E40003C20002300E0022318462837BD4680BDE1
:104E5000040001001800002089B5F81480B58AB05C
:104E600002AFF8607A603B600B467B81FEF77EF90B
:104E7000F8610123BB61FB6893F83D30DBB2202B66
:104E800040F01181FB690093192301228849F868D9
:104E900000F090FA0346002B01D0022304E1FB68E6
:104EA00093F83C30012B01D10223FDE0FB68012285
:104EB00083F83C20FB681B681B6803F00103012B8F
:104EC00007D0FB681B681A68FB681B6842F0010288
:104ED0001A60FB681B681A68FB681B6822F4006292
:104EE0001A60FB68242283F83D20FB6800221A64C4
:104EF000FB68704ADA62FB681B681A68FB681B680B
:104F000042F480721A60FB6900933B6800224FF004
:104F10000111F86800F04EFA0346002B0DD0FB6833
:104F20001B681B6803F48073B3F5807F03D1FB68B3
:104F30004FF400721A640323B6E07B89DBB21A4691
:104F4000FB681B6802F0FE021A61FEF70FF9F861B8
:104F5000FB681B685B6903F00203022B0CBF012393
:104F60000023DBB2FB75FB681B685B6903F480639D
:104F7000B3F5806F0CBF01230023DBB2BB7525E0C6
:104F8000FEF7F4F80246FB69D31A3A689A4202D354
:104F90003B68002B03D1FB68A02283F83D20FB680F
:104FA0001B685B6903F00203022B0CBF0123002383
:104FB000DBB2FB75FB681B685B6903F48063B3F5C8
:104FC000806F0CBF01230023DBB2BB75FB6893F835
:104FD0003D30DBB2A02B05D0FB7D002B02D1BB7D89
:104FE000002BCDD0FB68202283F83D20FB681B6896
:104FF0005B6903F00203022B29D1FB681B681A6866
:10500000FB681B6842F400721A6000233B61FB6876
:105010001B685B693B61FB681B689B693B613B6983
:10502000FB690093192301222149F86800F0C2F9B5
:105030000346002B01D0012336E0FB68202283F8D1
:105040003D20FB68002283F83C2000232CE0FB6815
:105050001B681A68FB681B6842F400721A60FB68E0
:105060001B686FF480625A61FB6900931923012267
:105070000F49F86800F09EF90346002B01D0012388
:1050800012E0BB690133BB61BA697B689A42FFF4E5
:1050900032AFFB68202283F83D20FB68002283F8B2
:1050A0003C20012300E0022318462037BD4680BD86
:1050B000020010000000FFFF80B588B002AFF8606A
:1050C000084611461A4603467B810B463B81134630
:1050D000FB80FB681B681A68FB681B6842F48072DF
:1050E0001A607B6A00933B6A00224FF00111F86856
:1050F00000F060F90346002B0DD0FB681B681B68AD
:1051000003F48073B3F5807F03D1FB684FF4007222
:105110001A6403235FE07B89DBB21A46FB681B68D5
:1051200002F0FE021A617B6A3A6A2D49F86800F0C3
:1051300098F90346002B01D001234CE000237B614A
:10514000FB681B685B697B61FB681B689B697B6113
:105150007B697A6A396AF86800F002FA0346002B24
:105160000DD0FB681B6C042B07D1FB681B681A6809
:10517000FB681B6842F400721A6001232BE0FB8875
:10518000012B05D13B89DAB2FB681B681A6121E06B
:105190003B891B0A9BB2DAB2FB681B681A617A6A08
:1051A000396AF86800F0DCF90346002B0DD0FB6883
:1051B0001B6C042B07D1FB681B681A68FB681B6813
:1051C00042F400721A60012305E03B89DAB2FB6801
:1051D0001B681A61002318461837BD4680BD00BF02
:1051E0000200010080B588B002AFF86008461146A1
:1051F0001A4603467B810B463B811346FB80FB68C6
:105200001B681A68FB681B6842F480621A60FB68BE
:105210001B681A68FB681B6842F480721A607B6A1C
:1052200000933B6A00224FF00111F86800F0C2F8C9
:105230000346002B0DD0FB681B681B6803F48073CA
:10524000B3F5807F03D1FB684FF400721A64032327
:10525000AAE07B89DBB21A46FB681B6802F0FE02FB
:105260001A617B6A3A6A5249F86800F0FAF8034614
:10527000002B01D0012397E000237B61FB681B68B2
:105280005B697B61FB681B689B697B617B697A6AF0
:10529000396AF86800F064F90346002B0DD0FB680A
:1052A0001B6C042B07D1FB681B681A68FB681B6822
:1052B00042F400721A60012376E0FB88012B05D1CD
:1052C0003B89DAB2FB681B681A6121E03B891B0A43
:1052D0009BB2DAB2FB681B681A617A6A396AF868AD
:1052E00000F03EF90346002B0DD0FB681B6C042B2D
:1052F00007D1FB681B681A68FB681B6842F40072E0
:105300001A60012350E03B89DAB2FB681B681A611E
:105310007A6A396AF86800F023F90346002B0DD049
:10532000FB681B6C042B07D1FB681B681A68FB68C1
:105330001B6842F400721A60012335E0FB681B68A9
:105340001A68FB681B6842F480721A607B6A0093DB
:105350003B6A00224FF00111F86800F02BF8034679
:10536000002B0DD0FB681B681B6803F48073B3F53A
:10537000807F03D1FB684FF400721A64032313E0AB
:105380007B89DBB243F00103DAB2FB681B681A6168
:105390007B6A3A6A0649F86800F063F80346002B16
:1053A00001D0012300E0002318461837BD4680BD18
:1053B0000200010080B584B000AFF860B9603B60C6
:1053C0001346FB7125E03B68B3F1FF3F21D0FDF7A9
:1053D000CDFE0246BB69D31A3A689A4202D33B68B3
:1053E000002B16D1FB6800221A63FB68202283F889
:1053F0003D20FB68002283F83E20FB681B6C43F0D5
:105400002002FB681A64FB68002283F83C20012319
:1054100023E0BB681B0CDBB2012B0DD1FB681B68C2
:105420005B69DA43BB6813409BB2002B0CBF0123BE
:105430000023DBB21A460CE0FB681B689B69DA4369
:10544000BB6813409BB2002B0CBF01230023DBB2CF
:105450001A46FB799A42B6D0002318461037BD464B
:1054600080BD80B584B000AFF860B9607A603B6001
:1054700051E0FB681B685B6903F48063B3F5806FE0
:1054800023D1FB681B681A68FB681B6842F4007232
:105490001A60FB681B686FF480625A61FB68002227
:1054A0001A63FB68202283F83D20FB68002283F802
:1054B0003E20FB681B6C43F00402FB681A64FB6827
:1054C000002283F83C20012346E07B68B3F1FF3FD4
:1054D00021D0FDF74BFE02463B68D31A7A689A4208
:1054E00002D37B68002B16D1FB6800221A63FB688D
:1054F000202283F83D20FB68002283F83E20FB68D1
:105500001B6C43F02002FB681A64FB68002283F8DE
:105510003C20012320E0BB681B0CDBB2012B0CD12B
:10552000FB681B685B69DA43BB6813409BB2002BC6
:1055300014BF01230023DBB20BE0FB681B689B69EF
:10554000DA43BB6813409BB2002B14BF0123002336
:10555000DBB2002B8DD1002318461037BD4680BD2D
:1055600080B584B000AFF860B9607A602DE0F8686B
:1055700000F0CEF80346002B01D001232DE0BB68DC
:10558000B3F1FF3F21D0FDF7F1FD02467B68D31A4E
:10559000BA689A4202D3BB68002B16D1FB6800227E
:1055A0001A63FB68202283F83D20FB68002283F801
:1055B0003E20FB681B6C43F02002FB681A64FB680A
:1055C000002283F83C20012307E0FB681B685B692D
:1055D00003F08003802BCAD1002318461037BD4644
:1055E00080BD80B584B000AFF860B9607A602DE00E
:1055F000F86800F08DF80346002B01D001232DE060
:10560000BB68B3F1FF3F21D0FDF7B0FD02467B68D8
:10561000D31ABA689A4202D3BB68002B16D1FB6832
:1056200000221A63FB68202283F83D20FB680022D9
:1056300083F83E20FB681B6C43F02002FB681A6471
:10564000FB68002283F83C20012307E0FB681B680D
:105650005B6903F00403042BCAD1002318461037FA
:10566000BD4680BD80B584B000AFF860B9607A6097
:1056700042E0FB681B685B6903F01003102B19D133
:10568000FB681B686FF010025A61FB6800221A6306
:10569000FB68202283F83D20FB68002283F83E202F
:1056A000FB681A6CFB681A64FB68002283F83C20D4
:1056B000012329E0FDF75AFD02467B68D31ABA6838
:1056C0009A4202D3BB68002B16D1FB6800221A63F2
:1056D000FB68202283F83D20FB68002283F83E20EF
:1056E000FB681B6C43F02002FB681A64FB68002215
:1056F00083F83C20012307E0FB681B685B6903F02B
:105700004003402BB5D1002318461037BD4680BD5D
:1057100080B483B000AF78607B681B685B6903F47A
:105720008063B3F5806F1BD17B681B686FF4806268
:105730005A617B6800221A637B68202283F83D202F
:105740007B68002283F83E207B681B6C43F00402D8
:105750007B681A647B68002283F83C20012300E008
:10576000002318460C37BD4680BC704780B586B014
:1057700000AF78607B68002B01D1012372E27B6867
:105780001B6803F00103002B00F08780924B5B68DD
:1057900003F00C03042B0CD08F4B5B6803F00C035D
:1057A000082B12D18C4B5B6803F48033B3F5803F38
:1057B0000BD1894B1B6803F40033002B6CD07B6842
:1057C0005B68002B68D101234CE27B685B68B3F512
:1057D000803F06D1804B1B687F4A43F480331360BF
:1057E0002EE07B685B68002B0CD17B4B1B687A4AF0
:1057F00023F480331360784B1B68774A23F48023AB
:1058000013601DE07B685B68B3F5A02F0CD1724B71
:105810001B68714A43F4802313606F4B1B686E4A08
:1058200043F4803313600BE06B4B1B686A4A23F42C
:1058300080331360684B1B68674A23F4802313602E
:105840007B685B68002B13D0FDF790FC386108E0A3
:10585000FDF78CFC02463B69D31A642B01D9032364
:1058600000E25D4B1B6803F40033002BF0D014E022
:10587000FDF77CFC386108E0FDF778FC02463B69E7
:10588000D31A642B01D90323ECE1534B1B6803F4B7
:105890000033002BF0D100E000BF7B681B6803F0F1
:1058A0000203002B63D04C4B5B6803F00C03002B0E
:1058B0000BD0494B5B6803F00C03082B1CD1464B03
:1058C0005B6803F48033002B16D1434B1B6803F055
:1058D0000203002B05D07B681B69012B01D001233B
:1058E000C0E13D4B1B6823F0F8027B685B69DB007D
:1058F000394913430B603AE07B681B69002B20D0C9
:10590000364B01221A60FDF731FC386108E0FDF7E3
:105910002DFC02463B69D31A022B01D90323A1E1D6
:105920002D4B1B6803F00203002BF0D02A4B1B68A1
:1059300023F0F8027B685B69DB00274913430B60A7
:1059400015E0264B00221A60FDF710FC386108E0D4
:10595000FDF70CFC02463B69D31A022B01D9032345
:1059600080E11D4B1B6803F00203002BF0D17B6824
:105970001B6803F00803002B3AD07B689B69002B5F
:1059800019D0174B01221A60FDF7F0FB386108E0CF
:10599000FDF7ECFB02463B69D31A022B01D9032326
:1059A00060E10D4B5B6A03F00203002BF0D0012095
:1059B00000F0D8FA1CE00A4B00221A60FDF7D6FB73
:1059C00038610FE0FDF7D2FB02463B69D31A022B88
:1059D00008D9032346E100BF001002400000424204
:1059E00080044242924B5B6A03F00203002BE9D130
:1059F0007B681B6803F00403002B00F0A6800023E3
:105A0000FB758B4BDB6903F08053002B0DD1884B6A
:105A1000DB69874A43F08053D361854BDB6903F030
:105A20008053BB60BB680123FB75824B1B6803F48A
:105A30008073002B18D17F4B1B687E4A43F4807320
:105A40001360FDF793FB386108E0FDF78FFB02461A
:105A50003B69D31A642B01D9032303E1754B1B68FF
:105A600003F48073002BF0D07B68DB68012B06D138
:105A70006F4B1B6A6E4A43F0010313622DE07B6893
:105A8000DB68002B0CD16A4B1B6A694A23F00103C7
:105A90001362674B1B6A664A23F0040313621CE01F
:105AA0007B68DB68052B0CD1614B1B6A604A43F0B5
:105AB000040313625E4B1B6A5D4A43F001031362E9
:105AC0000BE05B4B1B6A5A4A23F001031362584BED
:105AD0001B6A574A23F0040313627B68DB68002BC0
